{
  "abi": [
    {
      "type": "constructor",
      "inputs": [
        {
          "name": "name",
          "type": "string",
          "internalType": "string"
        },
        {
          "name": "symbol",
          "type": "string",
          "internalType": "string"
        },
        {
          "name": "uri",
          "type": "string",
          "internalType": "string"
        }
      ],
      "stateMutability": "nonpayable"
    },
    {
      "type": "fallback",
      "stateMutability": "payable"
    },
    {
      "type": "receive",
      "stateMutability": "payable"
    },
    {
      "type": "function",
      "name": "DEFAULT_ADMIN_ROLE",
      "inputs": [],
      "outputs": [
        {
          "name": "",
          "type": "bytes32",
          "internalType": "bytes32"
        }
      ],
      "stateMutability": "view"
    },
    {
      "type": "function",
      "name": "PRICE_PER_TOKEN",
      "inputs": [],
      "outputs": [
        {
          "name": "",
          "type": "uint256",
          "internalType": "uint256"
        }
      ],
      "stateMutability": "view"
    },
    {
      "type": "function",
      "name": "approve",
      "inputs": [
        {
          "name": "to",
          "type": "address",
          "internalType": "address"
        },
        {
          "name": "tokenId",
          "type": "uint256",
          "internalType": "uint256"
        }
      ],
      "outputs": [],
      "stateMutability": "nonpayable"
    },
    {
      "type": "function",
      "name": "balanceOf",
      "inputs": [
        {
          "name": "owner",
          "type": "address",
          "internalType": "address"
        }
      ],
      "outputs": [
        {
          "name": "",
          "type": "uint256",
          "internalType": "uint256"
        }
      ],
      "stateMutability": "view"
    },
    {
      "type": "function",
      "name": "baseURI",
      "inputs": [],
      "outputs": [
        {
          "name": "",
          "type": "string",
          "internalType": "string"
        }
      ],
      "stateMutability": "view"
    },
    {
      "type": "function",
      "name": "getApproved",
      "inputs": [
        {
          "name": "tokenId",
          "type": "uint256",
          "internalType": "uint256"
        }
      ],
      "outputs": [
        {
          "name": "",
          "type": "address",
          "internalType": "address"
        }
      ],
      "stateMutability": "view"
    },
    {
      "type": "function",
      "name": "getRoleAdmin",
      "inputs": [
        {
          "name": "role",
          "type": "bytes32",
          "internalType": "bytes32"
        }
      ],
      "outputs": [
        {
          "name": "",
          "type": "bytes32",
          "internalType": "bytes32"
        }
      ],
      "stateMutability": "view"
    },
    {
      "type": "function",
      "name": "grantRole",
      "inputs": [
        {
          "name": "role",
          "type": "bytes32",
          "internalType": "bytes32"
        },
        {
          "name": "account",
          "type": "address",
          "internalType": "address"
        }
      ],
      "outputs": [],
      "stateMutability": "nonpayable"
    },
    {
      "type": "function",
      "name": "hasRole",
      "inputs": [
        {
          "name": "role",
          "type": "bytes32",
          "internalType": "bytes32"
        },
        {
          "name": "account",
          "type": "address",
          "internalType": "address"
        }
      ],
      "outputs": [
        {
          "name": "",
          "type": "bool",
          "internalType": "bool"
        }
      ],
      "stateMutability": "view"
    },
    {
      "type": "function",
      "name": "isApprovedForAll",
      "inputs": [
        {
          "name": "owner",
          "type": "address",
          "internalType": "address"
        },
        {
          "name": "operator",
          "type": "address",
          "internalType": "address"
        }
      ],
      "outputs": [
        {
          "name": "",
          "type": "bool",
          "internalType": "bool"
        }
      ],
      "stateMutability": "view"
    },
    {
      "type": "function",
      "name": "mint",
      "inputs": [
        {
          "name": "to",
          "type": "address",
          "internalType": "address"
        }
      ],
      "outputs": [],
      "stateMutability": "payable"
    },
    {
      "type": "function",
      "name": "name",
      "inputs": [],
      "outputs": [
        {
          "name": "",
          "type": "string",
          "internalType": "string"
        }
      ],
      "stateMutability": "view"
    },
    {
      "type": "function",
      "name": "owner",
      "inputs": [],
      "outputs": [
        {
          "name": "",
          "type": "address",
          "internalType": "address"
        }
      ],
      "stateMutability": "view"
    },
    {
      "type": "function",
      "name": "ownerOf",
      "inputs": [
        {
          "name": "tokenId",
          "type": "uint256",
          "internalType": "uint256"
        }
      ],
      "outputs": [
        {
          "name": "",
          "type": "address",
          "internalType": "address"
        }
      ],
      "stateMutability": "view"
    },
    {
      "type": "function",
      "name": "renounceOwnership",
      "inputs": [],
      "outputs": [],
      "stateMutability": "nonpayable"
    },
    {
      "type": "function",
      "name": "renounceRole",
      "inputs": [
        {
          "name": "role",
          "type": "bytes32",
          "internalType": "bytes32"
        },
        {
          "name": "callerConfirmation",
          "type": "address",
          "internalType": "address"
        }
      ],
      "outputs": [],
      "stateMutability": "nonpayable"
    },
    {
      "type": "function",
      "name": "revokeRole",
      "inputs": [
        {
          "name": "role",
          "type": "bytes32",
          "internalType": "bytes32"
        },
        {
          "name": "account",
          "type": "address",
          "internalType": "address"
        }
      ],
      "outputs": [],
      "stateMutability": "nonpayable"
    },
    {
      "type": "function",
      "name": "royaltyInfo",
      "inputs": [
        {
          "name": "tokenId",
          "type": "uint256",
          "internalType": "uint256"
        },
        {
          "name": "salePrice",
          "type": "uint256",
          "internalType": "uint256"
        }
      ],
      "outputs": [
        {
          "name": "",
          "type": "address",
          "internalType": "address"
        },
        {
          "name": "",
          "type": "uint256",
          "internalType": "uint256"
        }
      ],
      "stateMutability": "view"
    },
    {
      "type": "function",
      "name": "safeTransferFrom",
      "inputs": [
        {
          "name": "from",
          "type": "address",
          "internalType": "address"
        },
        {
          "name": "to",
          "type": "address",
          "internalType": "address"
        },
        {
          "name": "tokenId",
          "type": "uint256",
          "internalType": "uint256"
        }
      ],
      "outputs": [],
      "stateMutability": "nonpayable"
    },
    {
      "type": "function",
      "name": "safeTransferFrom",
      "inputs": [
        {
          "name": "from",
          "type": "address",
          "internalType": "address"
        },
        {
          "name": "to",
          "type": "address",
          "internalType": "address"
        },
        {
          "name": "tokenId",
          "type": "uint256",
          "internalType": "uint256"
        },
        {
          "name": "data",
          "type": "bytes",
          "internalType": "bytes"
        }
      ],
      "outputs": [],
      "stateMutability": "nonpayable"
    },
    {
      "type": "function",
      "name": "setApprovalForAll",
      "inputs": [
        {
          "name": "operator",
          "type": "address",
          "internalType": "address"
        },
        {
          "name": "approved",
          "type": "bool",
          "internalType": "bool"
        }
      ],
      "outputs": [],
      "stateMutability": "nonpayable"
    },
    {
      "type": "function",
      "name": "setURI",
      "inputs": [
        {
          "name": "uri",
          "type": "string",
          "internalType": "string"
        }
      ],
      "outputs": [],
      "stateMutability": "nonpayable"
    },
    {
      "type": "function",
      "name": "supportsInterface",
      "inputs": [
        {
          "name": "interfaceId",
          "type": "bytes4",
          "internalType": "bytes4"
        }
      ],
      "outputs": [
        {
          "name": "",
          "type": "bool",
          "internalType": "bool"
        }
      ],
      "stateMutability": "view"
    },
    {
      "type": "function",
      "name": "symbol",
      "inputs": [],
      "outputs": [
        {
          "name": "",
          "type": "string",
          "internalType": "string"
        }
      ],
      "stateMutability": "view"
    },
    {
      "type": "function",
      "name": "tokenURI",
      "inputs": [
        {
          "name": "tokenId",
          "type": "uint256",
          "internalType": "uint256"
        }
      ],
      "outputs": [
        {
          "name": "",
          "type": "string",
          "internalType": "string"
        }
      ],
      "stateMutability": "view"
    },
    {
      "type": "function",
      "name": "totalSupply",
      "inputs": [],
      "outputs": [
        {
          "name": "",
          "type": "uint256",
          "internalType": "uint256"
        }
      ],
      "stateMutability": "view"
    },
    {
      "type": "function",
      "name": "transferFrom",
      "inputs": [
        {
          "name": "from",
          "type": "address",
          "internalType": "address"
        },
        {
          "name": "to",
          "type": "address",
          "internalType": "address"
        },
        {
          "name": "tokenId",
          "type": "uint256",
          "internalType": "uint256"
        }
      ],
      "outputs": [],
      "stateMutability": "nonpayable"
    },
    {
      "type": "function",
      "name": "transferOwnership",
      "inputs": [
        {
          "name": "newOwner",
          "type": "address",
          "internalType": "address"
        }
      ],
      "outputs": [],
      "stateMutability": "nonpayable"
    },
    {
      "type": "function",
      "name": "withdraw",
      "inputs": [
        {
          "name": "to",
          "type": "address",
          "internalType": "address"
        }
      ],
      "outputs": [],
      "stateMutability": "nonpayable"
    },
    {
      "type": "event",
      "name": "Approval",
      "inputs": [
        {
          "name": "owner",
          "type": "address",
          "indexed": true,
          "internalType": "address"
        },
        {
          "name": "approved",
          "type": "address",
          "indexed": true,
          "internalType": "address"
        },
        {
          "name": "tokenId",
          "type": "uint256",
          "indexed": true,
          "internalType": "uint256"
        }
      ],
      "anonymous": false
    },
    {
      "type": "event",
      "name": "ApprovalForAll",
      "inputs": [
        {
          "name": "owner",
          "type": "address",
          "indexed": true,
          "internalType": "address"
        },
        {
          "name": "operator",
          "type": "address",
          "indexed": true,
          "internalType": "address"
        },
        {
          "name": "approved",
          "type": "bool",
          "indexed": false,
          "internalType": "bool"
        }
      ],
      "anonymous": false
    },
    {
      "type": "event",
      "name": "BatchMetadataUpdate",
      "inputs": [
        {
          "name": "_fromTokenId",
          "type": "uint256",
          "indexed": false,
          "internalType": "uint256"
        },
        {
          "name": "_toTokenId",
          "type": "uint256",
          "indexed": false,
          "internalType": "uint256"
        }
      ],
      "anonymous": false
    },
    {
      "type": "event",
      "name": "MetadataUpdate",
      "inputs": [
        {
          "name": "_tokenId",
          "type": "uint256",
          "indexed": false,
          "internalType": "uint256"
        }
      ],
      "anonymous": false
    },
    {
      "type": "event",
      "name": "OwnershipTransferred",
      "inputs": [
        {
          "name": "previousOwner",
          "type": "address",
          "indexed": true,
          "internalType": "address"
        },
        {
          "name": "newOwner",
          "type": "address",
          "indexed": true,
          "internalType": "address"
        }
      ],
      "anonymous": false
    },
    {
      "type": "event",
      "name": "RoleAdminChanged",
      "inputs": [
        {
          "name": "role",
          "type": "bytes32",
          "indexed": true,
          "internalType": "bytes32"
        },
        {
          "name": "previousAdminRole",
          "type": "bytes32",
          "indexed": true,
          "internalType": "bytes32"
        },
        {
          "name": "newAdminRole",
          "type": "bytes32",
          "indexed": true,
          "internalType": "bytes32"
        }
      ],
      "anonymous": false
    },
    {
      "type": "event",
      "name": "RoleGranted",
      "inputs": [
        {
          "name": "role",
          "type": "bytes32",
          "indexed": true,
          "internalType": "bytes32"
        },
        {
          "name": "account",
          "type": "address",
          "indexed": true,
          "internalType": "address"
        },
        {
          "name": "sender",
          "type": "address",
          "indexed": true,
          "internalType": "address"
        }
      ],
      "anonymous": false
    },
    {
      "type": "event",
      "name": "RoleRevoked",
      "inputs": [
        {
          "name": "role",
          "type": "bytes32",
          "indexed": true,
          "internalType": "bytes32"
        },
        {
          "name": "account",
          "type": "address",
          "indexed": true,
          "internalType": "address"
        },
        {
          "name": "sender",
          "type": "address",
          "indexed": true,
          "internalType": "address"
        }
      ],
      "anonymous": false
    },
    {
      "type": "event",
      "name": "Transfer",
      "inputs": [
        {
          "name": "from",
          "type": "address",
          "indexed": true,
          "internalType": "address"
        },
        {
          "name": "to",
          "type": "address",
          "indexed": true,
          "internalType": "address"
        },
        {
          "name": "tokenId",
          "type": "uint256",
          "indexed": true,
          "internalType": "uint256"
        }
      ],
      "anonymous": false
    },
    {
      "type": "error",
      "name": "AccessControlBadConfirmation",
      "inputs": []
    },
    {
      "type": "error",
      "name": "AccessControlUnauthorizedAccount",
      "inputs": [
        {
          "name": "account",
          "type": "address",
          "internalType": "address"
        },
        {
          "name": "neededRole",
          "type": "bytes32",
          "internalType": "bytes32"
        }
      ]
    },
    {
      "type": "error",
      "name": "ERC2981InvalidDefaultRoyalty",
      "inputs": [
        {
          "name": "numerator",
          "type": "uint256",
          "internalType": "uint256"
        },
        {
          "name": "denominator",
          "type": "uint256",
          "internalType": "uint256"
        }
      ]
    },
    {
      "type": "error",
      "name": "ERC2981InvalidDefaultRoyaltyReceiver",
      "inputs": [
        {
          "name": "receiver",
          "type": "address",
          "internalType": "address"
        }
      ]
    },
    {
      "type": "error",
      "name": "ERC2981InvalidTokenRoyalty",
      "inputs": [
        {
          "name": "tokenId",
          "type": "uint256",
          "internalType": "uint256"
        },
        {
          "name": "numerator",
          "type": "uint256",
          "internalType": "uint256"
        },
        {
          "name": "denominator",
          "type": "uint256",
          "internalType": "uint256"
        }
      ]
    },
    {
      "type": "error",
      "name": "ERC2981InvalidTokenRoyaltyReceiver",
      "inputs": [
        {
          "name": "tokenId",
          "type": "uint256",
          "internalType": "uint256"
        },
        {
          "name": "receiver",
          "type": "address",
          "internalType": "address"
        }
      ]
    },
    {
      "type": "error",
      "name": "ERC721IncorrectOwner",
      "inputs": [
        {
          "name": "sender",
          "type": "address",
          "internalType": "address"
        },
        {
          "name": "tokenId",
          "type": "uint256",
          "internalType": "uint256"
        },
        {
          "name": "owner",
          "type": "address",
          "internalType": "address"
        }
      ]
    },
    {
      "type": "error",
      "name": "ERC721InsufficientApproval",
      "inputs": [
        {
          "name": "operator",
          "type": "address",
          "internalType": "address"
        },
        {
          "name": "tokenId",
          "type": "uint256",
          "internalType": "uint256"
        }
      ]
    },
    {
      "type": "error",
      "name": "ERC721InvalidApprover",
      "inputs": [
        {
          "name": "approver",
          "type": "address",
          "internalType": "address"
        }
      ]
    },
    {
      "type": "error",
      "name": "ERC721InvalidOperator",
      "inputs": [
        {
          "name": "operator",
          "type": "address",
          "internalType": "address"
        }
      ]
    },
    {
      "type": "error",
      "name": "ERC721InvalidOwner",
      "inputs": [
        {
          "name": "owner",
          "type": "address",
          "internalType": "address"
        }
      ]
    },
    {
      "type": "error",
      "name": "ERC721InvalidReceiver",
      "inputs": [
        {
          "name": "receiver",
          "type": "address",
          "internalType": "address"
        }
      ]
    },
    {
      "type": "error",
      "name": "ERC721InvalidSender",
      "inputs": [
        {
          "name": "sender",
          "type": "address",
          "internalType": "address"
        }
      ]
    },
    {
      "type": "error",
      "name": "ERC721NonexistentToken",
      "inputs": [
        {
          "name": "tokenId",
          "type": "uint256",
          "internalType": "uint256"
        }
      ]
    },
    {
      "type": "error",
      "name": "OwnableInvalidOwner",
      "inputs": [
        {
          "name": "owner",
          "type": "address",
          "internalType": "address"
        }
      ]
    },
    {
      "type": "error",
      "name": "OwnableUnauthorizedAccount",
      "inputs": [
        {
          "name": "account",
          "type": "address",
          "internalType": "address"
        }
      ]
    }
  ],
  "bytecode": {
    "object": "0x60a060405260006080908152600b9061001890826101ec565b506000600c5534801561002a57600080fd5b50604051611ec2380380611ec283398101604081905261004991610353565b338383600061005883826101ec565b50600161006582826101ec565b5050506001600160a01b03811661009757604051631e4fbdf760e01b8152600060048201526024015b60405180910390fd5b6100a0816100b2565b506100aa81610104565b5050506103da565b600a80546001600160a01b038381166001600160a01b0319831681179093556040519116919082907f8be0079c531659141344cd1fd0a4f28419497f9722a3daafe3b4186f6b6457e090600090a35050565b61010c61011c565b600b61011882826101ec565b5050565b600a546001600160a01b031633146101495760405163118cdaa760e01b815233600482015260240161008e565b565b634e487b7160e01b600052604160045260246000fd5b600181811c9082168061017557607f821691505b60208210810361019557634e487b7160e01b600052602260045260246000fd5b50919050565b601f8211156101e7576000816000526020600020601f850160051c810160208610156101c45750805b601f850160051c820191505b818110156101e3578281556001016101d0565b5050505b505050565b81516001600160401b038111156102055761020561014b565b610219816102138454610161565b8461019b565b602080601f83116001811461024e57600084156102365750858301515b600019600386901b1c1916600185901b1785556101e3565b600085815260208120601f198616915b8281101561027d5788860151825594840194600190910190840161025e565b508582101561029b5787850151600019600388901b60f8161c191681555b5050505050600190811b01905550565b600082601f8301126102bc57600080fd5b81516001600160401b03808211156102d6576102d661014b565b604051601f8301601f19908116603f011681019082821181831017156102fe576102fe61014b565b816040528381526020925086602085880101111561031b57600080fd5b600091505b8382101561033d5785820183015181830184015290820190610320565b6000602085830101528094505050505092915050565b60008060006060848603121561036857600080fd5b83516001600160401b038082111561037f57600080fd5b61038b878388016102ab565b945060208601519150808211156103a157600080fd5b6103ad878388016102ab565b935060408601519150808211156103c357600080fd5b506103d0868287016102ab565b9150509250925092565b611ad9806103e96000396000f3fe6080604052600436106101ae5760003560e01c80636a627842116100eb57806395d89b411161008f578063c87b56dd11610061578063c87b56dd146104f9578063d547741f14610519578063e985e9c514610539578063f2fde38b1461055957005b806395d89b411461048f578063a217fddf146104a4578063a22cb465146104b9578063b88d4fde146104d957005b8063715018a6116100c8578063715018a614610421578063833b9499146104365780638da5cb5b1461045157806391d148541461046f57005b80636a627842146103d95780636c0360eb146103ec57806370a082311461040157005b8063248a9ca31161015257806336568abe1161012f57806336568abe1461035957806342842e0e1461037957806351cff8d9146103995780636352211e146103b957005b8063248a9ca3146102ca5780632a55205a146102fa5780632f2ff15d1461033957005b8063081812fc1161018b578063081812fc1461022e578063095ea7b31461026657806318160ddd1461028657806323b872dd146102aa57005b806301ffc9a7146101b757806302fe5305146101ec57806306fdde031461020c57005b366101b557005b005b3480156101c357600080fd5b506101d76101d23660046114d4565b610579565b60405190151581526020015b60405180910390f35b3480156101f857600080fd5b506101b5610207366004611584565b61058a565b34801561021857600080fd5b506102216105a2565b6040516101e3919061161d565b34801561023a57600080fd5b5061024e610249366004611630565b610634565b6040516001600160a01b0390911681526020016101e3565b34801561027257600080fd5b506101b5610281366004611665565b61065d565b34801561029257600080fd5b5061029c600c5481565b6040519081526020016101e3565b3480156102b657600080fd5b506101b56102c536600461168f565b610668565b3480156102d657600080fd5b5061029c6102e5366004611630565b60009081526009602052604090206001015490565b34801561030657600080fd5b5061031a6103153660046116cb565b6106f8565b604080516001600160a01b0390931683526020830191909152016101e3565b34801561034557600080fd5b506101b56103543660046116ed565b6107a4565b34801561036557600080fd5b506101b56103743660046116ed565b6107c9565b34801561038557600080fd5b506101b561039436600461168f565b610801565b3480156103a557600080fd5b506101b56103b4366004611719565b61081c565b3480156103c557600080fd5b5061024e6103d4366004611630565b6108f2565b6101b56103e7366004611719565b6108fd565b3480156103f857600080fd5b5061022161091e565b34801561040d57600080fd5b5061029c61041c366004611719565b6109ac565b34801561042d57600080fd5b506101b56109f4565b34801561044257600080fd5b5061029c6602aa1efb94e00081565b34801561045d57600080fd5b50600a546001600160a01b031661024e565b34801561047b57600080fd5b506101d761048a3660046116ed565b610a08565b34801561049b57600080fd5b50610221610a33565b3480156104b057600080fd5b5061029c600081565b3480156104c557600080fd5b506101b56104d4366004611734565b610a42565b3480156104e557600080fd5b506101b56104f4366004611770565b610a4d565b34801561050557600080fd5b50610221610514366004611630565b610a64565b34801561052557600080fd5b506101b56105343660046116ed565b610ad6565b34801561054557600080fd5b506101d76105543660046117ec565b610afb565b34801561056557600080fd5b506101b5610574366004611719565b610b29565b600061058482610b64565b92915050565b610592610b89565b600b61059e82826118a0565b5050565b6060600080546105b190611816565b80601f01602080910402602001604051908101604052809291908181526020018280546105dd90611816565b801561062a5780601f106105ff5761010080835404028352916020019161062a565b820191906000526020600020905b81548152906001019060200180831161060d57829003601f168201915b5050505050905090565b600061063f82610bb6565b506000828152600460205260409020546001600160a01b0316610584565b61059e828233610bef565b6001600160a01b03821661069757604051633250574960e11b8152600060048201526024015b60405180910390fd5b60006106a4838333610bfc565b9050836001600160a01b0316816001600160a01b0316146106f2576040516364283d7b60e01b81526001600160a01b038086166004830152602482018490528216604482015260640161068e565b50505050565b60008281526007602090815260408083208151808301909252546001600160a01b038116808352600160a01b9091046001600160601b031692820192909252829161076d5750604080518082019091526006546001600160a01b0381168252600160a01b90046001600160601b031660208201525b60208101516000906127109061078c906001600160601b031687611976565b610796919061198d565b915196919550909350505050565b6000828152600960205260409020600101546107bf81610cf5565b6106f28383610cff565b6001600160a01b03811633146107f25760405163334bd91960e11b815260040160405180910390fd5b6107fc8282610d93565b505050565b6107fc83838360405180602001604052806000815250610a4d565b610824610b89565b478061085f5760405162461bcd60e51b815260206004820152600a6024820152696e6f2062616c616e636560b01b604482015260640161068e565b6000826001600160a01b03168260405160006040518083038185875af1925050503d80600081146108ac576040519150601f19603f3d011682016040523d82523d6000602084013e6108b1565b606091505b50509050806107fc5760405162461bcd60e51b815260206004820152600d60248201526c6661696c20776974686472617760981b604482015260640161068e565b600061058482610bb6565b600c5461090b9060016119af565b600c81905561091b908290610e00565b50565b600b805461092b90611816565b80601f016020809104026020016040519081016040528092919081815260200182805461095790611816565b80156109a45780601f10610979576101008083540402835291602001916109a4565b820191906000526020600020905b81548152906001019060200180831161098757829003601f168201915b505050505081565b60006001600160a01b0382166109d8576040516322718ad960e21b81526000600482015260240161068e565b506001600160a01b031660009081526003602052604090205490565b6109fc610b89565b610a066000610e1a565b565b60009182526009602090815260408084206001600160a01b0393909316845291905290205460ff1690565b6060600180546105b190611816565b61059e338383610e6c565b610a58848484610668565b6106f284848484610f0b565b6060600c54821115610aa45760405162461bcd60e51b81526020600482015260096024820152681b9bdd08199bdd5b9960ba1b604482015260640161068e565b600b610aaf83611034565b604051602001610ac09291906119c2565b6040516020818303038152906040529050919050565b600082815260096020526040902060010154610af181610cf5565b6106f28383610d93565b6001600160a01b03918216600090815260056020908152604080832093909416825291909152205460ff1690565b610b31610b89565b6001600160a01b038116610b5b57604051631e4fbdf760e01b81526000600482015260240161068e565b61091b81610e1a565b60006001600160e01b03198216637965db0b60e01b14806105845750610584826110c7565b600a546001600160a01b03163314610a065760405163118cdaa760e01b815233600482015260240161068e565b6000818152600260205260408120546001600160a01b03168061058457604051637e27328960e01b81526004810184905260240161068e565b6107fc83838360016110ec565b6000828152600260205260408120546001600160a01b0390811690831615610c2957610c298184866111f2565b6001600160a01b03811615610c6757610c466000856000806110ec565b6001600160a01b038116600090815260036020526040902080546000190190555b6001600160a01b03851615610c96576001600160a01b0385166000908152600360205260409020805460010190555b60008481526002602052604080822080546001600160a01b0319166001600160a01b0389811691821790925591518793918516917fddf252ad1be2c89b69c2b068fc378daa952ba7f163c4a11628f55a4df523b3ef91a4949350505050565b61091b8133611256565b6000610d0b8383610a08565b610d8b5760008381526009602090815260408083206001600160a01b03861684529091529020805460ff19166001179055610d433390565b6001600160a01b0316826001600160a01b0316847f2f8788117e7eff1d82e926ec794901d17c78024a50270940304540a733656f0d60405160405180910390a4506001610584565b506000610584565b6000610d9f8383610a08565b15610d8b5760008381526009602090815260408083206001600160a01b0386168085529252808320805460ff1916905551339286917ff6391f5c32d9c69d2a47ea670b442974b53935d1edc7fd64eb21e047a839171b9190a4506001610584565b61059e82826040518060200160405280600081525061128f565b600a80546001600160a01b038381166001600160a01b0319831681179093556040519116919082907f8be0079c531659141344cd1fd0a4f28419497f9722a3daafe3b4186f6b6457e090600090a35050565b6001600160a01b038216610e9e57604051630b61174360e31b81526001600160a01b038316600482015260240161068e565b6001600160a01b03838116600081815260056020908152604080832094871680845294825291829020805460ff191686151590811790915591519182527f17307eab39ab6107e8899845ad3d59bd9653f200f220920489ca2b5937696c31910160405180910390a3505050565b6001600160a01b0383163b156106f257604051630a85bd0160e11b81526001600160a01b0384169063150b7a0290610f4d903390889087908790600401611a49565b6020604051808303816000875af1925050508015610f88575060408051601f3d908101601f19168201909252610f8591810190611a86565b60015b610ff1573d808015610fb6576040519150601f19603f3d011682016040523d82523d6000602084013e610fbb565b606091505b508051600003610fe957604051633250574960e11b81526001600160a01b038516600482015260240161068e565b805181602001fd5b6001600160e01b03198116630a85bd0160e11b1461102d57604051633250574960e11b81526001600160a01b038516600482015260240161068e565b5050505050565b60606000611041836112a6565b600101905060008167ffffffffffffffff811115611061576110616114f8565b6040519080825280601f01601f19166020018201604052801561108b576020820181803683370190505b5090508181016020015b600019016f181899199a1a9b1b9c1cb0b131b232b360811b600a86061a8153600a850494508461109557509392505050565b60006001600160e01b03198216632483248360e11b148061058457506105848261137e565b808061110057506001600160a01b03821615155b156111c257600061111084610bb6565b90506001600160a01b0383161580159061113c5750826001600160a01b0316816001600160a01b031614155b801561114f575061114d8184610afb565b155b156111785760405163a9fbf51f60e01b81526001600160a01b038416600482015260240161068e565b81156111c05783856001600160a01b0316826001600160a01b03167f8c5be1e5ebec7d5bd14f71427d1e84f3dd0314c0f7b2291e5b200ac8c7c3b92560405160405180910390a45b505b5050600090815260046020526040902080546001600160a01b0319166001600160a01b0392909216919091179055565b6111fd8383836113a3565b6107fc576001600160a01b03831661122b57604051637e27328960e01b81526004810182905260240161068e565b60405163177e802f60e01b81526001600160a01b03831660048201526024810182905260440161068e565b6112608282610a08565b61059e5760405163e2517d3f60e01b81526001600160a01b03821660048201526024810183905260440161068e565b6112998383611409565b6107fc6000848484610f0b565b60008072184f03e93ff9f4daa797ed6e38ed64bf6a1f0160401b83106112e55772184f03e93ff9f4daa797ed6e38ed64bf6a1f0160401b830492506040015b6d04ee2d6d415b85acef81000000008310611311576d04ee2d6d415b85acef8100000000830492506020015b662386f26fc10000831061132f57662386f26fc10000830492506010015b6305f5e1008310611347576305f5e100830492506008015b612710831061135b57612710830492506004015b6064831061136d576064830492506002015b600a83106105845760010192915050565b60006001600160e01b0319821663152a902d60e11b148061058457506105848261146e565b60006001600160a01b038316158015906114015750826001600160a01b0316846001600160a01b031614806113dd57506113dd8484610afb565b8061140157506000828152600460205260409020546001600160a01b038481169116145b949350505050565b6001600160a01b03821661143357604051633250574960e11b81526000600482015260240161068e565b600061144183836000610bfc565b90506001600160a01b038116156107fc576040516339e3563760e11b81526000600482015260240161068e565b60006001600160e01b031982166380ac58cd60e01b148061149f57506001600160e01b03198216635b5e139f60e01b145b8061058457506301ffc9a760e01b6001600160e01b0319831614610584565b6001600160e01b03198116811461091b57600080fd5b6000602082840312156114e657600080fd5b81356114f1816114be565b9392505050565b634e487b7160e01b600052604160045260246000fd5b600067ffffffffffffffff80841115611529576115296114f8565b604051601f8501601f19908116603f01168101908282118183101715611551576115516114f8565b8160405280935085815286868601111561156a57600080fd5b858560208301376000602087830101525050509392505050565b60006020828403121561159657600080fd5b813567ffffffffffffffff8111156115ad57600080fd5b8201601f810184136115be57600080fd5b6114018482356020840161150e565b60005b838110156115e85781810151838201526020016115d0565b50506000910152565b600081518084526116098160208601602086016115cd565b601f01601f19169290920160200192915050565b6020815260006114f160208301846115f1565b60006020828403121561164257600080fd5b5035919050565b80356001600160a01b038116811461166057600080fd5b919050565b6000806040838503121561167857600080fd5b61168183611649565b946020939093013593505050565b6000806000606084860312156116a457600080fd5b6116ad84611649565b92506116bb60208501611649565b9150604084013590509250925092565b600080604083850312156116de57600080fd5b50508035926020909101359150565b6000806040838503121561170057600080fd5b8235915061171060208401611649565b90509250929050565b60006020828403121561172b57600080fd5b6114f182611649565b6000806040838503121561174757600080fd5b61175083611649565b91506020830135801515811461176557600080fd5b809150509250929050565b6000806000806080858703121561178657600080fd5b61178f85611649565b935061179d60208601611649565b925060408501359150606085013567ffffffffffffffff8111156117c057600080fd5b8501601f810187136117d157600080fd5b6117e08782356020840161150e565b91505092959194509250565b600080604083850312156117ff57600080fd5b61180883611649565b915061171060208401611649565b600181811c9082168061182a57607f821691505b60208210810361184a57634e487b7160e01b600052602260045260246000fd5b50919050565b601f8211156107fc576000816000526020600020601f850160051c810160208610156118795750805b601f850160051c820191505b8181101561189857828155600101611885565b505050505050565b815167ffffffffffffffff8111156118ba576118ba6114f8565b6118ce816118c88454611816565b84611850565b602080601f83116001811461190357600084156118eb5750858301515b600019600386901b1c1916600185901b178555611898565b600085815260208120601f198616915b8281101561193257888601518255948401946001909101908401611913565b50858210156119505787850151600019600388901b60f8161c191681555b5050505050600190811b01905550565b634e487b7160e01b600052601160045260246000fd5b808202811582820484141761058457610584611960565b6000826119aa57634e487b7160e01b600052601260045260246000fd5b500490565b8082018082111561058457610584611960565b60008084546119d081611816565b600182811680156119e857600181146119fd57611a2c565b60ff1984168752821515830287019450611a2c565b8860005260208060002060005b85811015611a235781548a820152908401908201611a0a565b50505082870194505b505050508351611a408183602088016115cd565b01949350505050565b6001600160a01b0385811682528416602082015260408101839052608060608201819052600090611a7c908301846115f1565b9695505050505050565b600060208284031215611a9857600080fd5b81516114f1816114be56fea264697066735822122059153da2fd6c8c4e1656f5d5f88825338740e6930f6a722f645188c88a9af3d264736f6c63430008190033",
    "linkReferences": {}
  },
  "methodIdentifiers": {
    "DEFAULT_ADMIN_ROLE()": "a217fddf",
    "PRICE_PER_TOKEN()": "833b9499",
    "approve(address,uint256)": "095ea7b3",
    "balanceOf(address)": "70a08231",
    "baseURI()": "6c0360eb",
    "getApproved(uint256)": "081812fc",
    "getRoleAdmin(bytes32)": "248a9ca3",
    "grantRole(bytes32,address)": "2f2ff15d",
    "hasRole(bytes32,address)": "91d14854",
    "isApprovedForAll(address,address)": "e985e9c5",
    "mint(address)": "6a627842",
    "name()": "06fdde03",
    "owner()": "8da5cb5b",
    "ownerOf(uint256)": "6352211e",
    "renounceOwnership()": "715018a6",
    "renounceRole(bytes32,address)": "36568abe",
    "revokeRole(bytes32,address)": "d547741f",
    "royaltyInfo(uint256,uint256)": "2a55205a",
    "safeTransferFrom(address,address,uint256)": "42842e0e",
    "safeTransferFrom(address,address,uint256,bytes)": "b88d4fde",
    "setApprovalForAll(address,bool)": "a22cb465",
    "setURI(string)": "02fe5305",
    "supportsInterface(bytes4)": "01ffc9a7",
    "symbol()": "95d89b41",
    "tokenURI(uint256)": "c87b56dd",
    "totalSupply()": "18160ddd",
    "transferFrom(address,address,uint256)": "23b872dd",
    "transferOwnership(address)": "f2fde38b",
    "withdraw(address)": "51cff8d9"
  },
  "id": 37
}